{
  "_format": "hh-sol-artifact-1",
  "contractName": "Hike2Earn",
  "sourceName": "contracts/Hike2Earn.sol",
  "abi": [
    {
      "inputs": [],
      "stateMutability": "nonpayable",
      "type": "constructor"
    },
    {
      "anonymous": false,
      "inputs": [
        {
          "indexed": true,
          "internalType": "address",
          "name": "owner",
          "type": "address"
        },
        {
          "indexed": true,
          "internalType": "address",
          "name": "approved",
          "type": "address"
        },
        {
          "indexed": true,
          "internalType": "uint256",
          "name": "tokenId",
          "type": "uint256"
        }
      ],
      "name": "Approval",
      "type": "event"
    },
    {
      "anonymous": false,
      "inputs": [
        {
          "indexed": true,
          "internalType": "address",
          "name": "owner",
          "type": "address"
        },
        {
          "indexed": true,
          "internalType": "address",
          "name": "operator",
          "type": "address"
        },
        {
          "indexed": false,
          "internalType": "bool",
          "name": "approved",
          "type": "bool"
        }
      ],
      "name": "ApprovalForAll",
      "type": "event"
    },
    {
      "anonymous": false,
      "inputs": [
        {
          "indexed": false,
          "internalType": "uint256",
          "name": "_fromTokenId",
          "type": "uint256"
        },
        {
          "indexed": false,
          "internalType": "uint256",
          "name": "_toTokenId",
          "type": "uint256"
        }
      ],
      "name": "BatchMetadataUpdate",
      "type": "event"
    },
    {
      "anonymous": false,
      "inputs": [
        {
          "indexed": true,
          "internalType": "uint256",
          "name": "campaignId",
          "type": "uint256"
        },
        {
          "indexed": false,
          "internalType": "string",
          "name": "name",
          "type": "string"
        },
        {
          "indexed": false,
          "internalType": "uint256",
          "name": "startDate",
          "type": "uint256"
        },
        {
          "indexed": false,
          "internalType": "uint256",
          "name": "endDate",
          "type": "uint256"
        }
      ],
      "name": "CampaignCreated",
      "type": "event"
    },
    {
      "anonymous": false,
      "inputs": [
        {
          "indexed": false,
          "internalType": "uint256",
          "name": "_tokenId",
          "type": "uint256"
        }
      ],
      "name": "MetadataUpdate",
      "type": "event"
    },
    {
      "anonymous": false,
      "inputs": [
        {
          "indexed": true,
          "internalType": "uint256",
          "name": "mountainId",
          "type": "uint256"
        },
        {
          "indexed": false,
          "internalType": "string",
          "name": "name",
          "type": "string"
        },
        {
          "indexed": false,
          "internalType": "uint256",
          "name": "altitude",
          "type": "uint256"
        },
        {
          "indexed": true,
          "internalType": "uint256",
          "name": "campaignId",
          "type": "uint256"
        }
      ],
      "name": "MountainAdded",
      "type": "event"
    },
    {
      "anonymous": false,
      "inputs": [
        {
          "indexed": true,
          "internalType": "uint256",
          "name": "tokenId",
          "type": "uint256"
        },
        {
          "indexed": true,
          "internalType": "address",
          "name": "climber",
          "type": "address"
        },
        {
          "indexed": true,
          "internalType": "uint256",
          "name": "campaignId",
          "type": "uint256"
        },
        {
          "indexed": false,
          "internalType": "string",
          "name": "mountainName",
          "type": "string"
        },
        {
          "indexed": false,
          "internalType": "uint256",
          "name": "altitude",
          "type": "uint256"
        },
        {
          "indexed": false,
          "internalType": "uint256",
          "name": "climbDate",
          "type": "uint256"
        }
      ],
      "name": "NFTMinted",
      "type": "event"
    },
    {
      "anonymous": false,
      "inputs": [
        {
          "indexed": true,
          "internalType": "uint256",
          "name": "tokenId",
          "type": "uint256"
        },
        {
          "indexed": true,
          "internalType": "address",
          "name": "climber",
          "type": "address"
        }
      ],
      "name": "NFTVerified",
      "type": "event"
    },
    {
      "anonymous": false,
      "inputs": [
        {
          "indexed": true,
          "internalType": "address",
          "name": "previousOwner",
          "type": "address"
        },
        {
          "indexed": true,
          "internalType": "address",
          "name": "newOwner",
          "type": "address"
        }
      ],
      "name": "OwnershipTransferred",
      "type": "event"
    },
    {
      "anonymous": false,
      "inputs": [
        {
          "indexed": true,
          "internalType": "uint256",
          "name": "campaignId",
          "type": "uint256"
        },
        {
          "indexed": true,
          "internalType": "address",
          "name": "participant",
          "type": "address"
        },
        {
          "indexed": false,
          "internalType": "address",
          "name": "token",
          "type": "address"
        },
        {
          "indexed": false,
          "internalType": "uint256",
          "name": "amount",
          "type": "uint256"
        }
      ],
      "name": "PrizeDistributed",
      "type": "event"
    },
    {
      "anonymous": false,
      "inputs": [
        {
          "indexed": true,
          "internalType": "uint256",
          "name": "campaignId",
          "type": "uint256"
        },
        {
          "indexed": true,
          "internalType": "address",
          "name": "sponsor",
          "type": "address"
        },
        {
          "indexed": false,
          "internalType": "address",
          "name": "token",
          "type": "address"
        },
        {
          "indexed": false,
          "internalType": "uint256",
          "name": "amount",
          "type": "uint256"
        }
      ],
      "name": "PrizePoolFunded",
      "type": "event"
    },
    {
      "anonymous": false,
      "inputs": [
        {
          "indexed": true,
          "internalType": "address",
          "name": "sponsor",
          "type": "address"
        },
        {
          "indexed": false,
          "internalType": "string",
          "name": "name",
          "type": "string"
        }
      ],
      "name": "SponsorRegistered",
      "type": "event"
    },
    {
      "anonymous": false,
      "inputs": [
        {
          "indexed": true,
          "internalType": "address",
          "name": "from",
          "type": "address"
        },
        {
          "indexed": true,
          "internalType": "address",
          "name": "to",
          "type": "address"
        },
        {
          "indexed": true,
          "internalType": "uint256",
          "name": "tokenId",
          "type": "uint256"
        }
      ],
      "name": "Transfer",
      "type": "event"
    },
    {
      "inputs": [],
      "name": "VERIFICATION_PERIOD",
      "outputs": [
        {
          "internalType": "uint256",
          "name": "",
          "type": "uint256"
        }
      ],
      "stateMutability": "view",
      "type": "function"
    },
    {
      "inputs": [
        {
          "internalType": "uint256",
          "name": "_campaignId",
          "type": "uint256"
        },
        {
          "internalType": "string",
          "name": "_name",
          "type": "string"
        },
        {
          "internalType": "uint256",
          "name": "_altitude",
          "type": "uint256"
        },
        {
          "internalType": "string",
          "name": "_location",
          "type": "string"
        }
      ],
      "name": "addMountain",
      "outputs": [],
      "stateMutability": "nonpayable",
      "type": "function"
    },
    {
      "inputs": [
        {
          "internalType": "address",
          "name": "to",
          "type": "address"
        },
        {
          "internalType": "uint256",
          "name": "tokenId",
          "type": "uint256"
        }
      ],
      "name": "approve",
      "outputs": [],
      "stateMutability": "nonpayable",
      "type": "function"
    },
    {
      "inputs": [
        {
          "internalType": "address",
          "name": "owner",
          "type": "address"
        }
      ],
      "name": "balanceOf",
      "outputs": [
        {
          "internalType": "uint256",
          "name": "",
          "type": "uint256"
        }
      ],
      "stateMutability": "view",
      "type": "function"
    },
    {
      "inputs": [],
      "name": "campaignCount",
      "outputs": [
        {
          "internalType": "uint256",
          "name": "",
          "type": "uint256"
        }
      ],
      "stateMutability": "view",
      "type": "function"
    },
    {
      "inputs": [
        {
          "internalType": "uint256",
          "name": "",
          "type": "uint256"
        },
        {
          "internalType": "address",
          "name": "",
          "type": "address"
        }
      ],
      "name": "campaignParticipants",
      "outputs": [
        {
          "internalType": "bool",
          "name": "",
          "type": "bool"
        }
      ],
      "stateMutability": "view",
      "type": "function"
    },
    {
      "inputs": [
        {
          "internalType": "uint256",
          "name": "",
          "type": "uint256"
        }
      ],
      "name": "campaigns",
      "outputs": [
        {
          "internalType": "string",
          "name": "name",
          "type": "string"
        },
        {
          "internalType": "uint256",
          "name": "startDate",
          "type": "uint256"
        },
        {
          "internalType": "uint256",
          "name": "endDate",
          "type": "uint256"
        },
        {
          "internalType": "uint256",
          "name": "prizePoolETH",
          "type": "uint256"
        },
        {
          "internalType": "bool",
          "name": "isActive",
          "type": "bool"
        },
        {
          "internalType": "bool",
          "name": "prizeDistributed",
          "type": "bool"
        },
        {
          "internalType": "uint256",
          "name": "totalNFTsMinted",
          "type": "uint256"
        }
      ],
      "stateMutability": "view",
      "type": "function"
    },
    {
      "inputs": [
        {
          "internalType": "uint256",
          "name": "",
          "type": "uint256"
        }
      ],
      "name": "climbingNFTs",
      "outputs": [
        {
          "internalType": "uint256",
          "name": "mountainId",
          "type": "uint256"
        },
        {
          "internalType": "address",
          "name": "climber",
          "type": "address"
        },
        {
          "internalType": "uint256",
          "name": "climbDate",
          "type": "uint256"
        },
        {
          "internalType": "string",
          "name": "mountainName",
          "type": "string"
        },
        {
          "internalType": "uint256",
          "name": "altitude",
          "type": "uint256"
        },
        {
          "internalType": "bool",
          "name": "verified",
          "type": "bool"
        }
      ],
      "stateMutability": "view",
      "type": "function"
    },
    {
      "inputs": [
        {
          "internalType": "uint256",
          "name": "_campaignId",
          "type": "uint256"
        }
      ],
      "name": "closeCampaign",
      "outputs": [],
      "stateMutability": "nonpayable",
      "type": "function"
    },
    {
      "inputs": [
        {
          "internalType": "string",
          "name": "_name",
          "type": "string"
        },
        {
          "internalType": "uint256",
          "name": "_startDate",
          "type": "uint256"
        },
        {
          "internalType": "uint256",
          "name": "_endDate",
          "type": "uint256"
        }
      ],
      "name": "createCampaign",
      "outputs": [
        {
          "internalType": "uint256",
          "name": "",
          "type": "uint256"
        }
      ],
      "stateMutability": "nonpayable",
      "type": "function"
    },
    {
      "inputs": [
        {
          "internalType": "uint256",
          "name": "_campaignId",
          "type": "uint256"
        }
      ],
      "name": "distributePrizes",
      "outputs": [],
      "stateMutability": "nonpayable",
      "type": "function"
    },
    {
      "inputs": [],
      "name": "emergencyWithdraw",
      "outputs": [],
      "stateMutability": "nonpayable",
      "type": "function"
    },
    {
      "inputs": [
        {
          "internalType": "address",
          "name": "_token",
          "type": "address"
        }
      ],
      "name": "emergencyWithdrawERC20",
      "outputs": [],
      "stateMutability": "nonpayable",
      "type": "function"
    },
    {
      "inputs": [
        {
          "internalType": "uint256",
          "name": "tokenId",
          "type": "uint256"
        }
      ],
      "name": "getApproved",
      "outputs": [
        {
          "internalType": "address",
          "name": "",
          "type": "address"
        }
      ],
      "stateMutability": "view",
      "type": "function"
    },
    {
      "inputs": [
        {
          "internalType": "uint256",
          "name": "_campaignId",
          "type": "uint256"
        },
        {
          "internalType": "address",
          "name": "_token",
          "type": "address"
        }
      ],
      "name": "getCampaignERC20Pool",
      "outputs": [
        {
          "internalType": "uint256",
          "name": "",
          "type": "uint256"
        }
      ],
      "stateMutability": "view",
      "type": "function"
    },
    {
      "inputs": [
        {
          "internalType": "uint256",
          "name": "_campaignId",
          "type": "uint256"
        }
      ],
      "name": "getCampaignInfo",
      "outputs": [
        {
          "internalType": "string",
          "name": "name",
          "type": "string"
        },
        {
          "internalType": "uint256",
          "name": "startDate",
          "type": "uint256"
        },
        {
          "internalType": "uint256",
          "name": "endDate",
          "type": "uint256"
        },
        {
          "internalType": "uint256",
          "name": "prizePoolETH",
          "type": "uint256"
        },
        {
          "internalType": "uint256",
          "name": "participantCount",
          "type": "uint256"
        },
        {
          "internalType": "bool",
          "name": "isActive",
          "type": "bool"
        },
        {
          "internalType": "bool",
          "name": "prizeDistributed",
          "type": "bool"
        }
      ],
      "stateMutability": "view",
      "type": "function"
    },
    {
      "inputs": [
        {
          "internalType": "uint256",
          "name": "_tokenId",
          "type": "uint256"
        }
      ],
      "name": "getNFTInfo",
      "outputs": [
        {
          "internalType": "string",
          "name": "mountainName",
          "type": "string"
        },
        {
          "internalType": "uint256",
          "name": "altitude",
          "type": "uint256"
        },
        {
          "internalType": "uint256",
          "name": "climbDate",
          "type": "uint256"
        },
        {
          "internalType": "address",
          "name": "climber",
          "type": "address"
        },
        {
          "internalType": "bool",
          "name": "verified",
          "type": "bool"
        }
      ],
      "stateMutability": "view",
      "type": "function"
    },
    {
      "inputs": [
        {
          "internalType": "uint256",
          "name": "_campaignId",
          "type": "uint256"
        },
        {
          "internalType": "address",
          "name": "_participant",
          "type": "address"
        }
      ],
      "name": "getParticipantNFTCount",
      "outputs": [
        {
          "internalType": "uint256",
          "name": "",
          "type": "uint256"
        }
      ],
      "stateMutability": "view",
      "type": "function"
    },
    {
      "inputs": [
        {
          "internalType": "address",
          "name": "_participant",
          "type": "address"
        }
      ],
      "name": "getParticipantNFTs",
      "outputs": [
        {
          "internalType": "uint256[]",
          "name": "",
          "type": "uint256[]"
        }
      ],
      "stateMutability": "view",
      "type": "function"
    },
    {
      "inputs": [
        {
          "internalType": "address",
          "name": "owner",
          "type": "address"
        },
        {
          "internalType": "address",
          "name": "operator",
          "type": "address"
        }
      ],
      "name": "isApprovedForAll",
      "outputs": [
        {
          "internalType": "bool",
          "name": "",
          "type": "bool"
        }
      ],
      "stateMutability": "view",
      "type": "function"
    },
    {
      "inputs": [
        {
          "internalType": "uint256",
          "name": "_mountainId",
          "type": "uint256"
        },
        {
          "internalType": "string",
          "name": "_proofURI",
          "type": "string"
        }
      ],
      "name": "mintClimbingNFT",
      "outputs": [
        {
          "internalType": "uint256",
          "name": "",
          "type": "uint256"
        }
      ],
      "stateMutability": "nonpayable",
      "type": "function"
    },
    {
      "inputs": [],
      "name": "mountainCount",
      "outputs": [
        {
          "internalType": "uint256",
          "name": "",
          "type": "uint256"
        }
      ],
      "stateMutability": "view",
      "type": "function"
    },
    {
      "inputs": [
        {
          "internalType": "uint256",
          "name": "",
          "type": "uint256"
        }
      ],
      "name": "mountains",
      "outputs": [
        {
          "internalType": "string",
          "name": "name",
          "type": "string"
        },
        {
          "internalType": "uint256",
          "name": "altitude",
          "type": "uint256"
        },
        {
          "internalType": "string",
          "name": "location",
          "type": "string"
        },
        {
          "internalType": "bool",
          "name": "isActive",
          "type": "bool"
        },
        {
          "internalType": "uint256",
          "name": "campaignId",
          "type": "uint256"
        }
      ],
      "stateMutability": "view",
      "type": "function"
    },
    {
      "inputs": [],
      "name": "name",
      "outputs": [
        {
          "internalType": "string",
          "name": "",
          "type": "string"
        }
      ],
      "stateMutability": "view",
      "type": "function"
    },
    {
      "inputs": [],
      "name": "nftCount",
      "outputs": [
        {
          "internalType": "uint256",
          "name": "",
          "type": "uint256"
        }
      ],
      "stateMutability": "view",
      "type": "function"
    },
    {
      "inputs": [],
      "name": "owner",
      "outputs": [
        {
          "internalType": "address",
          "name": "",
          "type": "address"
        }
      ],
      "stateMutability": "view",
      "type": "function"
    },
    {
      "inputs": [
        {
          "internalType": "uint256",
          "name": "tokenId",
          "type": "uint256"
        }
      ],
      "name": "ownerOf",
      "outputs": [
        {
          "internalType": "address",
          "name": "",
          "type": "address"
        }
      ],
      "stateMutability": "view",
      "type": "function"
    },
    {
      "inputs": [
        {
          "internalType": "address",
          "name": "",
          "type": "address"
        },
        {
          "internalType": "uint256",
          "name": "",
          "type": "uint256"
        }
      ],
      "name": "participantNFTs",
      "outputs": [
        {
          "internalType": "uint256",
          "name": "",
          "type": "uint256"
        }
      ],
      "stateMutability": "view",
      "type": "function"
    },
    {
      "inputs": [],
      "name": "renounceOwnership",
      "outputs": [],
      "stateMutability": "nonpayable",
      "type": "function"
    },
    {
      "inputs": [
        {
          "internalType": "address",
          "name": "from",
          "type": "address"
        },
        {
          "internalType": "address",
          "name": "to",
          "type": "address"
        },
        {
          "internalType": "uint256",
          "name": "tokenId",
          "type": "uint256"
        }
      ],
      "name": "safeTransferFrom",
      "outputs": [],
      "stateMutability": "nonpayable",
      "type": "function"
    },
    {
      "inputs": [
        {
          "internalType": "address",
          "name": "from",
          "type": "address"
        },
        {
          "internalType": "address",
          "name": "to",
          "type": "address"
        },
        {
          "internalType": "uint256",
          "name": "tokenId",
          "type": "uint256"
        },
        {
          "internalType": "bytes",
          "name": "data",
          "type": "bytes"
        }
      ],
      "name": "safeTransferFrom",
      "outputs": [],
      "stateMutability": "nonpayable",
      "type": "function"
    },
    {
      "inputs": [
        {
          "internalType": "address",
          "name": "operator",
          "type": "address"
        },
        {
          "internalType": "bool",
          "name": "approved",
          "type": "bool"
        }
      ],
      "name": "setApprovalForAll",
      "outputs": [],
      "stateMutability": "nonpayable",
      "type": "function"
    },
    {
      "inputs": [
        {
          "internalType": "uint256",
          "name": "_campaignId",
          "type": "uint256"
        },
        {
          "internalType": "string",
          "name": "_name",
          "type": "string"
        },
        {
          "internalType": "string",
          "name": "_logoURI",
          "type": "string"
        }
      ],
      "name": "sponsorCampaign",
      "outputs": [],
      "stateMutability": "payable",
      "type": "function"
    },
    {
      "inputs": [
        {
          "internalType": "uint256",
          "name": "_campaignId",
          "type": "uint256"
        },
        {
          "internalType": "address",
          "name": "_token",
          "type": "address"
        },
        {
          "internalType": "uint256",
          "name": "_amount",
          "type": "uint256"
        }
      ],
      "name": "sponsorCampaignERC20",
      "outputs": [],
      "stateMutability": "nonpayable",
      "type": "function"
    },
    {
      "inputs": [
        {
          "internalType": "address",
          "name": "",
          "type": "address"
        }
      ],
      "name": "sponsors",
      "outputs": [
        {
          "internalType": "string",
          "name": "name",
          "type": "string"
        },
        {
          "internalType": "address",
          "name": "sponsorAddress",
          "type": "address"
        },
        {
          "internalType": "uint256",
          "name": "totalContributed",
          "type": "uint256"
        },
        {
          "internalType": "string",
          "name": "logoURI",
          "type": "string"
        },
        {
          "internalType": "bool",
          "name": "isActive",
          "type": "bool"
        }
      ],
      "stateMutability": "view",
      "type": "function"
    },
    {
      "inputs": [
        {
          "internalType": "bytes4",
          "name": "interfaceId",
          "type": "bytes4"
        }
      ],
      "name": "supportsInterface",
      "outputs": [
        {
          "internalType": "bool",
          "name": "",
          "type": "bool"
        }
      ],
      "stateMutability": "view",
      "type": "function"
    },
    {
      "inputs": [],
      "name": "symbol",
      "outputs": [
        {
          "internalType": "string",
          "name": "",
          "type": "string"
        }
      ],
      "stateMutability": "view",
      "type": "function"
    },
    {
      "inputs": [
        {
          "internalType": "uint256",
          "name": "tokenId",
          "type": "uint256"
        }
      ],
      "name": "tokenURI",
      "outputs": [
        {
          "internalType": "string",
          "name": "",
          "type": "string"
        }
      ],
      "stateMutability": "view",
      "type": "function"
    },
    {
      "inputs": [
        {
          "internalType": "address",
          "name": "from",
          "type": "address"
        },
        {
          "internalType": "address",
          "name": "to",
          "type": "address"
        },
        {
          "internalType": "uint256",
          "name": "tokenId",
          "type": "uint256"
        }
      ],
      "name": "transferFrom",
      "outputs": [],
      "stateMutability": "nonpayable",
      "type": "function"
    },
    {
      "inputs": [
        {
          "internalType": "address",
          "name": "newOwner",
          "type": "address"
        }
      ],
      "name": "transferOwnership",
      "outputs": [],
      "stateMutability": "nonpayable",
      "type": "function"
    },
    {
      "inputs": [
        {
          "internalType": "uint256",
          "name": "_tokenId",
          "type": "uint256"
        }
      ],
      "name": "verifyNFT",
      "outputs": [],
      "stateMutability": "nonpayable",
      "type": "function"
    }
  ],
  "bytecode": "0x60806040523480156200001157600080fd5b506040518060400160405280601681526020017f48696b65324561726e20436c696d62696e67204e4654000000000000000000008152506040518060400160405280600381526020016248324560e81b8152508160009081620000759190620001a7565b506001620000848282620001a7565b505050620000a16200009b620000ac60201b60201c565b620000b0565b600160085562000273565b3390565b600780546001600160a01b038381166001600160a01b0319831681179093556040519116919082907f8be0079c531659141344cd1fd0a4f28419497f9722a3daafe3b4186f6b6457e090600090a35050565b634e487b7160e01b600052604160045260246000fd5b600181811c908216806200012d57607f821691505b6020821081036200014e57634e487b7160e01b600052602260045260246000fd5b50919050565b601f821115620001a257600081815260208120601f850160051c810160208610156200017d5750805b601f850160051c820191505b818110156200019e5782815560010162000189565b5050505b505050565b81516001600160401b03811115620001c357620001c362000102565b620001db81620001d4845462000118565b8462000154565b602080601f831160018114620002135760008415620001fa5750858301515b600019600386901b1c1916600185901b1785556200019e565b600085815260208120601f198616915b82811015620002445788860151825594840194600190910190840162000223565b5085821015620002635787850151600019600388901b60f8161c191681555b5050505050600190811b01905550565b61404080620002836000396000f3fe6080604052600436106102465760003560e01c8063734aa80111610139578063b88d4fde116100b6578063d35590c21161007a578063d35590c214610717578063db2e21bc14610748578063e38e2b821461075d578063e985e9c514610790578063f2fde38b146107d9578063f6073dbf146107f957600080fd5b8063b88d4fde1461063a578063c26f42f51461065a578063c87b56dd1461068b578063d188929f146106ab578063d207f754146106dc57600080fd5b8063a22cb465116100fd578063a22cb4651461058d578063b0e1c1e1146105ad578063b724d90f146105cd578063b791bef0146105fa578063b7c6fe361461061a57600080fd5b8063734aa8011461050757806386c7e911146105275780638da5cb5b146105475780639341926a1461056557806395d89b411461057857600080fd5b806342842e0e116101c75780636ca3fc3b1161018b5780636ca3fc3b1461046a5780636f99f3471461048a57806370a08231146104bc578063715018a6146104dc5780637274e30d146104f157600080fd5b806342842e0e146103d35780634d8b1b8f146103f3578063521523ff1461041357806361b0c4a11461042a5780636352211e1461044a57600080fd5b8063141961bc1161020e578063141961bc1461032057806323b872dd146103535780633020580b146103735780633d86209c1461039357806340c442de146103b357600080fd5b806301ffc9a71461024b57806306fdde0314610280578063081812fc146102a2578063095ea7b3146102da5780630af2c6ca146102fc575b600080fd5b34801561025757600080fd5b5061026b610266366004613595565b61080f565b60405190151581526020015b60405180910390f35b34801561028c57600080fd5b50610295610820565b6040516102779190613602565b3480156102ae57600080fd5b506102c26102bd366004613615565b6108b2565b6040516001600160a01b039091168152602001610277565b3480156102e657600080fd5b506102fa6102f536600461364a565b6108d9565b005b34801561030857600080fd5b5061031260125481565b604051908152602001610277565b34801561032c57600080fd5b5061034061033b366004613615565b6109f3565b6040516102779796959493929190613674565b34801561035f57600080fd5b506102fa61036e3660046136ba565b610abd565b34801561037f57600080fd5b5061031261038e3660046137a2565b610aee565b34801561039f57600080fd5b506103126103ae36600461364a565b610c37565b3480156103bf57600080fd5b506102fa6103ce3660046137f0565b610c68565b3480156103df57600080fd5b506102fa6103ee3660046136ba565b610d03565b3480156103ff57600080fd5b5061031261040e36600461380b565b610d1e565b34801561041f57600080fd5b5061031262093a8081565b34801561043657600080fd5b5061031261044536600461380b565b610d6e565b34801561045657600080fd5b506102c2610465366004613615565b610dcf565b34801561047657600080fd5b506102fa610485366004613615565b610e2f565b34801561049657600080fd5b506104aa6104a5366004613615565b61117a565b60405161027796959493929190613837565b3480156104c857600080fd5b506103126104d73660046137f0565b611247565b3480156104e857600080fd5b506102fa6112cd565b3480156104fd57600080fd5b5061031260115481565b34801561051357600080fd5b5061031261052236600461387e565b6112e1565b34801561053357600080fd5b506102fa6105423660046138c5565b611735565b34801561055357600080fd5b506007546001600160a01b03166102c2565b6102fa6105733660046138ea565b6118e5565b34801561058457600080fd5b50610295611b38565b34801561059957600080fd5b506102fa6105a8366004613965565b611b47565b3480156105b957600080fd5b506102fa6105c8366004613615565b611b52565b3480156105d957600080fd5b506105ed6105e83660046137f0565b611b96565b604051610277919061399c565b34801561060657600080fd5b506102fa6106153660046139e0565b611c02565b34801561062657600080fd5b506102fa610635366004613615565b611d8b565b34801561064657600080fd5b506102fa610655366004613a57565b61213a565b34801561066657600080fd5b5061067a610675366004613615565b612172565b604051610277959493929190613ac7565b34801561069757600080fd5b506102956106a6366004613615565b6122b4565b3480156106b757600080fd5b506106cb6106c6366004613615565b6122bf565b604051610277959493929190613b07565b3480156106e857600080fd5b5061026b6106f736600461380b565b600f60209081526000928352604080842090915290825290205460ff1681565b34801561072357600080fd5b506107376107323660046137f0565b612431565b604051610277959493929190613b49565b34801561075457600080fd5b506102fa612580565b34801561076957600080fd5b5061077d610778366004613615565b6125c1565b6040516102779796959493929190613b99565b34801561079c57600080fd5b5061026b6107ab366004613be1565b6001600160a01b03918216600090815260056020908152604080832093909416825291909152205460ff1690565b3480156107e557600080fd5b506102fa6107f43660046137f0565b6126cf565b34801561080557600080fd5b5061031260105481565b600061081a82612745565b92915050565b60606000805461082f90613c0b565b80601f016020809104026020016040519081016040528092919081815260200182805461085b90613c0b565b80156108a85780601f1061087d576101008083540402835291602001916108a8565b820191906000526020600020905b81548152906001019060200180831161088b57829003601f168201915b5050505050905090565b60006108bd8261276a565b506000908152600460205260409020546001600160a01b031690565b60006108e482610dcf565b9050806001600160a01b0316836001600160a01b0316036109565760405162461bcd60e51b815260206004820152602160248201527f4552433732313a20617070726f76616c20746f2063757272656e74206f776e656044820152603960f91b60648201526084015b60405180910390fd5b336001600160a01b0382161480610972575061097281336107ab565b6109e45760405162461bcd60e51b815260206004820152603d60248201527f4552433732313a20617070726f76652063616c6c6572206973206e6f7420746f60448201527f6b656e206f776e6572206f7220617070726f76656420666f7220616c6c000000606482015260840161094d565b6109ee83836127ba565b505050565b600c60205260009081526040902080548190610a0e90613c0b565b80601f0160208091040260200160405190810160405280929190818152602001828054610a3a90613c0b565b8015610a875780601f10610a5c57610100808354040283529160200191610a87565b820191906000526020600020905b815481529060010190602001808311610a6a57829003601f168201915b5050506001840154600285015460038601546009870154600a9097015495969295919450925060ff808316926101009004169087565b610ac73382612828565b610ae35760405162461bcd60e51b815260040161094d90613c45565b6109ee8383836128a7565b6000610af8612a0b565b818310610b405760405162461bcd60e51b8152602060048201526016602482015275496e76616c69642063616d706169676e20646174657360501b604482015260640161094d565b42831015610b9a5760405162461bcd60e51b815260206004820152602160248201527f43616d706169676e206d75737420737461727420696e207468652066757475726044820152606560f81b606482015260840161094d565b6011546000818152600c6020526040902080610bb68782613ce0565b5060018082018690556002820185905560098201805461ffff191690911790556000600a82018190556011805491610bed83613db6565b9190505550817f02fe3fddd43aad14ae5c30d5d694f19ecb065dfde85bb591b91e8af1448724d2878787604051610c2693929190613dcf565b60405180910390a250949350505050565b600e6020528160005260406000208181548110610c5357600080fd5b90600052602060002001600091509150505481565b610c70612a0b565b80610cff610c866007546001600160a01b031690565b6040516370a0823160e01b81523060048201526001600160a01b038416906370a0823190602401602060405180830381865afa158015610cca573d6000803e3d6000fd5b505050506040513d601f19601f82011682018060405250810190610cee9190613df4565b6001600160a01b0384169190612a65565b5050565b6109ee8383836040518060200160405280600081525061213a565b60006011548310610d415760405162461bcd60e51b815260040161094d90613e0d565b506000828152600c602090815260408083206001600160a01b038516845260040190915290205492915050565b60006011548310610d915760405162461bcd60e51b815260040161094d90613e0d565b6000838152600f602090815260408083206001600160a01b038616845290915290205460ff16610dc2576000610dc5565b60015b60ff169392505050565b6000818152600260205260408120546001600160a01b03168061081a5760405162461bcd60e51b8152602060048201526018602482015277115490cdcc8c4e881a5b9d985b1a59081d1bdad95b88125160421b604482015260640161094d565b610e37612a0b565b610e3f612ac8565b6011548110610e605760405162461bcd60e51b815260040161094d90613e0d565b6000818152600c602052604090206009810154610100900460ff1615610ec85760405162461bcd60e51b815260206004820152601a60248201527f5072697a657320616c7265616479206469737472696275746564000000000000604482015260640161094d565b80600201544211610f135760405162461bcd60e51b815260206004820152601560248201527443616d706169676e207374696c6c2061637469766560581b604482015260640161094d565b6007810154610f565760405162461bcd60e51b815260206004820152600f60248201526e4e6f207061727469636970616e747360881b604482015260640161094d565b600781015460038201541561103c576000818360030154610f779190613e44565b905060005b82811015611039576000846007018281548110610f9b57610f9b613e66565b60009182526020822001546040516001600160a01b039091169250829185156108fc02918691818181858888f19350505050158015610fde573d6000803e3d6000fd5b506040805160008152602081018590526001600160a01b0383169188917fda751ea541c74512d7b5ade26674944a6177e9024029b8cfc2ac209d711f6d90910160405180910390a3508061103181613db6565b915050610f7c565b50505b60005b600583015481101561115b57600083600501828154811061106257611062613e66565b60009182526020808320909101546001600160a01b031680835260048701909152604090912054909150801561114657600061109e8583613e44565b905060005b858110156111435760008760070182815481106110c2576110c2613e66565b6000918252602090912001546001600160a01b0390811691506110e89086168285612a65565b604080516001600160a01b038781168252602082018690528316918b917fda751ea541c74512d7b5ade26674944a6177e9024029b8cfc2ac209d711f6d90910160405180910390a3508061113b81613db6565b9150506110a3565b50505b5050808061115390613db6565b91505061103f565b5050600901805461ff0019166101001790556111776001600855565b50565b600b60205260009081526040902080546001820154600283015460038401805493946001600160a01b03909316939192916111b490613c0b565b80601f01602080910402602001604051908101604052809291908181526020018280546111e090613c0b565b801561122d5780601f106112025761010080835404028352916020019161122d565b820191906000526020600020905b81548152906001019060200180831161121057829003601f168201915b50505050600483015460059093015491929160ff16905086565b60006001600160a01b0382166112b15760405162461bcd60e51b815260206004820152602960248201527f4552433732313a2061646472657373207a65726f206973206e6f7420612076616044820152683634b21037bbb732b960b91b606482015260840161094d565b506001600160a01b031660009081526003602052604090205490565b6112d5612a0b565b6112df6000612b21565b565b600060105483106113345760405162461bcd60e51b815260206004820152601760248201527f4d6f756e7461696e20646f6573206e6f74206578697374000000000000000000604482015260640161094d565b6000838152600a6020526040808220815160a0810190925280548290829061135b90613c0b565b80601f016020809104026020016040519081016040528092919081815260200182805461138790613c0b565b80156113d45780601f106113a9576101008083540402835291602001916113d4565b820191906000526020600020905b8154815290600101906020018083116113b757829003601f168201915b50505050508152602001600182015481526020016002820180546113f790613c0b565b80601f016020809104026020016040519081016040528092919081815260200182805461142390613c0b565b80156114705780601f1061144557610100808354040283529160200191611470565b820191906000526020600020905b81548152906001019060200180831161145357829003601f168201915b5050509183525050600382015460ff161515602082015260049091015460409091015260608101519091506114e05760405162461bcd60e51b81526020600482015260166024820152754d6f756e7461696e206973206e6f742061637469766560501b604482015260640161094d565b60808101516000908152600c60205260409020600981015460ff166115405760405162461bcd60e51b815260206004820152601660248201527543616d706169676e206973206e6f742061637469766560501b604482015260640161094d565b806001015442101561158b5760405162461bcd60e51b815260206004820152601460248201527310d85b5c185a59db881b9bdd081cdd185c9d195960621b604482015260640161094d565b80600201544211156115d45760405162461bcd60e51b815260206004820152601260248201527110d85b5c185a59db881a185cc8195b99195960721b604482015260640161094d565b6115e2600980546001019055565b60006115ed60095490565b6040805160c08101825288815233602080830191825242838501908152885160608501908152898301516080860152600060a08601819052878152600b909352949091208351815591516001830180546001600160a01b0319166001600160a01b0390921691909117905551600282015591519293509160038201906116739082613ce0565b506080820151600482015560a0909101516005909101805460ff19169115159190911790556116a23382612b73565b6116ac8186612ce0565b336000908152600e60209081526040822080546001810182559083529082200182905560128054916116dd83613db6565b9091555050608083015183516020850151604051339285927f27e7bd35ca1b7740a06ffffde68ead562b53810d6ba16d21d9190cfefb694cef926117249291904290613dcf565b60405180910390a495945050505050565b60115483106117565760405162461bcd60e51b815260040161094d90613e0d565b6000811161179f5760405162461bcd60e51b81526020600482015260166024820152754d75737420636f6e7472696275746520746f6b656e7360501b604482015260640161094d565b6000838152600c602052604090206009015460ff166117f65760405162461bcd60e51b815260206004820152601360248201527243616d706169676e206e6f742061637469766560681b604482015260640161094d565b61180b6001600160a01b038316333084612d9c565b6000838152600c602090815260408083206001600160a01b03861684526004810190925282205490910361186a57600581018054600181018255600091825260209091200180546001600160a01b0319166001600160a01b0385161790555b6001600160a01b038316600090815260048201602052604081208054849290611894908490613e7c565b9091555050604080516001600160a01b038516815260208101849052339186917f73593122fcd18eab1e499cabecde2f9ef7f2b288effecadbacc336f60fa035f8910160405180910390a350505050565b60115483106119065760405162461bcd60e51b815260040161094d90613e0d565b6000341161194c5760405162461bcd60e51b815260206004820152601360248201527209aeae6e840c6dedce8e4d2c4eae8ca408aa89606b1b604482015260640161094d565b6000838152600c602052604090206009015460ff166119a35760405162461bcd60e51b815260206004820152601360248201527243616d706169676e206e6f742061637469766560681b604482015260640161094d565b336000908152600d60205260409020600101546001600160a01b0316611aa7576040805160a081018252838152336020808301829052348385015260608301859052600160808401526000918252600d90529190912081518190611a079082613ce0565b5060208201516001820180546001600160a01b0319166001600160a01b039092169190911790556040820151600282015560608201516003820190611a4c9082613ce0565b50608091909101516004909101805460ff191691151591909117905560405133907f1ad838681754ff1031fcf3485c12138c78d44954b24c870a64df23ecbdf3eaa990611a9a908590613602565b60405180910390a2611acf565b336000908152600d602052604081206002018054349290611ac9908490613e7c565b90915550505b6000838152600c602052604081206003018054349290611af0908490613e7c565b90915550506040805160008152346020820152339185917f73593122fcd18eab1e499cabecde2f9ef7f2b288effecadbacc336f60fa035f891015b60405180910390a3505050565b60606001805461082f90613c0b565b610cff338383612dd4565b611b5a612a0b565b6011548110611b7b5760405162461bcd60e51b815260040161094d90613e0d565b6000908152600c60205260409020600901805460ff19169055565b6001600160a01b0381166000908152600e6020908152604091829020805483518184028101840190945280845260609392830182828015611bf657602002820191906000526020600020905b815481526020019060010190808311611be2575b50505050509050919050565b611c0a612a0b565b6011548410611c2b5760405162461bcd60e51b815260040161094d90613e0d565b6000848152600c602052604090206009015460ff16611c855760405162461bcd60e51b815260206004820152601660248201527543616d706169676e206973206e6f742061637469766560501b604482015260640161094d565b6010546040805160a081018252858152602080820186905281830185905260016060830152608082018890526000848152600a9091529190912081518190611ccd9082613ce0565b506020820151600182015560408201516002820190611cec9082613ce0565b50606082015160038201805460ff19169115159190911790556080909101516004909101556000858152600c6020908152604082206006018054600181018255908352908220018290556010805491611d4483613db6565b919050555084817f06906d05a563ff27d104ce9d8477e950989ec1e95fd935d177996670ee7010f18686604051611d7c929190613e8f565b60405180910390a35050505050565b611d93612a0b565b611d9c81612e9a565b611ddf5760405162461bcd60e51b8152602060048201526014602482015273151bdad95b88191bd95cc81b9bdd08195e1a5cdd60621b604482015260640161094d565b6000818152600b602052604090206005015460ff1615611e385760405162461bcd60e51b815260206004820152601460248201527313919508185b1c9958591e481d995c9a599a595960621b604482015260640161094d565b6000818152600b6020526040902060020154611e589062093a8090613e7c565b421115611ea75760405162461bcd60e51b815260206004820152601b60248201527f566572696669636174696f6e20706572696f6420657870697265640000000000604482015260640161094d565b6000818152600b6020908152604080832060058101805460ff1916600117905580548452600a909252808320815160a08101909252805492939282908290611eee90613c0b565b80601f0160208091040260200160405190810160405280929190818152602001828054611f1a90613c0b565b8015611f675780601f10611f3c57610100808354040283529160200191611f67565b820191906000526020600020905b815481529060010190602001808311611f4a57829003601f168201915b5050505050815260200160018201548152602001600282018054611f8a90613c0b565b80601f0160208091040260200160405190810160405280929190818152602001828054611fb690613c0b565b80156120035780601f10611fd857610100808354040283529160200191612003565b820191906000526020600020905b815481529060010190602001808311611fe657829003601f168201915b5050509183525050600382015460ff908116151560208084019190915260049093015460409283015260808401516000908152600c845282812060018801546001600160a01b031682526008810190945291909120549293509091166120e1576001808401805460078401805480850182556000918252602080832090910180546001600160a01b0319166001600160a01b039485161790558354831682526008860181526040808320805460ff19908116881790915560808901518452600f83528184209554909416835293905291909120805490911690911790555b600a810180549060006120f383613db6565b909155505060018301546040516001600160a01b039091169085907f94cea318c6e1a5093dd435e08a8d4c1b8eaca421199b03ca2b7c7b67071cb68f90600090a350505050565b6121443383612828565b6121605760405162461bcd60e51b815260040161094d90613c45565b61216c84848484612eb7565b50505050565b600a6020526000908152604090208054819061218d90613c0b565b80601f01602080910402602001604051908101604052809291908181526020018280546121b990613c0b565b80156122065780601f106121db57610100808354040283529160200191612206565b820191906000526020600020905b8154815290600101906020018083116121e957829003601f168201915b50505050509080600101549080600201805461222190613c0b565b80601f016020809104026020016040519081016040528092919081815260200182805461224d90613c0b565b801561229a5780601f1061226f5761010080835404028352916020019161229a565b820191906000526020600020905b81548152906001019060200180831161227d57829003601f168201915b505050506003830154600490930154919260ff1691905085565b606061081a82612eea565b60606000806000806122d086612e9a565b6123135760405162461bcd60e51b8152602060048201526014602482015273151bdad95b88191bd95cc81b9bdd08195e1a5cdd60621b604482015260640161094d565b6000868152600b60209081526040808320815160c0810183528154815260018201546001600160a01b03169381019390935260028101549183019190915260038101805460608401919061236690613c0b565b80601f016020809104026020016040519081016040528092919081815260200182805461239290613c0b565b80156123df5780601f106123b4576101008083540402835291602001916123df565b820191906000526020600020905b8154815290600101906020018083116123c257829003601f168201915b5050509183525050600482015460208083019190915260059092015460ff16151560409182015260608301516080840151918401519284015160a090940151909b919a50919850919650945092505050565b600d6020526000908152604090208054819061244c90613c0b565b80601f016020809104026020016040519081016040528092919081815260200182805461247890613c0b565b80156124c55780601f1061249a576101008083540402835291602001916124c5565b820191906000526020600020905b8154815290600101906020018083116124a857829003601f168201915b505050506001830154600284015460038501805494956001600160a01b0390931694919350906124f490613c0b565b80601f016020809104026020016040519081016040528092919081815260200182805461252090613c0b565b801561256d5780601f106125425761010080835404028352916020019161256d565b820191906000526020600020905b81548152906001019060200180831161255057829003601f168201915b5050506004909301549192505060ff1685565b612588612a0b565b6007546040516001600160a01b03909116904780156108fc02916000818181858888f19350505050158015611177573d6000803e3d6000fd5b606060008060008060008060115488106125ed5760405162461bcd60e51b815260040161094d90613e0d565b6000888152600c6020526040902060018101546002820154600383015460078401546009850154855486959493929160ff808216926101009092041690879061263590613c0b565b80601f016020809104026020016040519081016040528092919081815260200182805461266190613c0b565b80156126ae5780601f10612683576101008083540402835291602001916126ae565b820191906000526020600020905b81548152906001019060200180831161269157829003601f168201915b50505050509650975097509750975097509750975050919395979092949650565b6126d7612a0b565b6001600160a01b03811661273c5760405162461bcd60e51b815260206004820152602660248201527f4f776e61626c653a206e6577206f776e657220697320746865207a65726f206160448201526564647265737360d01b606482015260840161094d565b61117781612b21565b60006001600160e01b03198216632483248360e11b148061081a575061081a82612ff2565b61277381612e9a565b6111775760405162461bcd60e51b8152602060048201526018602482015277115490cdcc8c4e881a5b9d985b1a59081d1bdad95b88125160421b604482015260640161094d565b600081815260046020526040902080546001600160a01b0319166001600160a01b03841690811790915581906127ef82610dcf565b6001600160a01b03167f8c5be1e5ebec7d5bd14f71427d1e84f3dd0314c0f7b2291e5b200ac8c7c3b92560405160405180910390a45050565b60008061283483610dcf565b9050806001600160a01b0316846001600160a01b0316148061287b57506001600160a01b0380821660009081526005602090815260408083209388168352929052205460ff165b8061289f5750836001600160a01b0316612894846108b2565b6001600160a01b0316145b949350505050565b826001600160a01b03166128ba82610dcf565b6001600160a01b0316146128e05760405162461bcd60e51b815260040161094d90613eb1565b6001600160a01b0382166129425760405162461bcd60e51b8152602060048201526024808201527f4552433732313a207472616e7366657220746f20746865207a65726f206164646044820152637265737360e01b606482015260840161094d565b826001600160a01b031661295582610dcf565b6001600160a01b03161461297b5760405162461bcd60e51b815260040161094d90613eb1565b600081815260046020908152604080832080546001600160a01b03199081169091556001600160a01b0387811680865260038552838620805460001901905590871680865283862080546001019055868652600290945282852080549092168417909155905184937fddf252ad1be2c89b69c2b068fc378daa952ba7f163c4a11628f55a4df523b3ef91a4505050565b6007546001600160a01b031633146112df5760405162461bcd60e51b815260206004820181905260248201527f4f776e61626c653a2063616c6c6572206973206e6f7420746865206f776e6572604482015260640161094d565b6040516001600160a01b0383166024820152604481018290526109ee90849063a9059cbb60e01b906064015b60408051601f198184030181529190526020810180516001600160e01b03166001600160e01b031990931692909217909152613042565b600260085403612b1a5760405162461bcd60e51b815260206004820152601f60248201527f5265656e7472616e637947756172643a207265656e7472616e742063616c6c00604482015260640161094d565b6002600855565b600780546001600160a01b038381166001600160a01b0319831681179093556040519116919082907f8be0079c531659141344cd1fd0a4f28419497f9722a3daafe3b4186f6b6457e090600090a35050565b6001600160a01b038216612bc95760405162461bcd60e51b815260206004820181905260248201527f4552433732313a206d696e7420746f20746865207a65726f2061646472657373604482015260640161094d565b612bd281612e9a565b15612c1f5760405162461bcd60e51b815260206004820152601c60248201527f4552433732313a20746f6b656e20616c7265616479206d696e74656400000000604482015260640161094d565b612c2881612e9a565b15612c755760405162461bcd60e51b815260206004820152601c60248201527f4552433732313a20746f6b656e20616c7265616479206d696e74656400000000604482015260640161094d565b6001600160a01b038216600081815260036020908152604080832080546001019055848352600290915280822080546001600160a01b0319168417905551839291907fddf252ad1be2c89b69c2b068fc378daa952ba7f163c4a11628f55a4df523b3ef908290a45050565b612ce982612e9a565b612d4c5760405162461bcd60e51b815260206004820152602e60248201527f45524337323155524953746f726167653a2055524920736574206f66206e6f6e60448201526d32bc34b9ba32b73a103a37b5b2b760911b606482015260840161094d565b6000828152600660205260409020612d648282613ce0565b506040518281527ff8e1a15aba9398e019f0b49df1a4fde98ee17ae345cb5f6b5e2c27f5033e8ce79060200160405180910390a15050565b6040516001600160a01b038085166024830152831660448201526064810182905261216c9085906323b872dd60e01b90608401612a91565b816001600160a01b0316836001600160a01b031603612e355760405162461bcd60e51b815260206004820152601960248201527f4552433732313a20617070726f766520746f2063616c6c657200000000000000604482015260640161094d565b6001600160a01b03838116600081815260056020908152604080832094871680845294825291829020805460ff191686151590811790915591519182527f17307eab39ab6107e8899845ad3d59bd9653f200f220920489ca2b5937696c319101611b2b565b6000908152600260205260409020546001600160a01b0316151590565b612ec28484846128a7565b612ece84848484613117565b61216c5760405162461bcd60e51b815260040161094d90613ef6565b6060612ef58261276a565b60008281526006602052604081208054612f0e90613c0b565b80601f0160208091040260200160405190810160405280929190818152602001828054612f3a90613c0b565b8015612f875780601f10612f5c57610100808354040283529160200191612f87565b820191906000526020600020905b815481529060010190602001808311612f6a57829003601f168201915b505050505090506000612fa560408051602081019091526000815290565b90508051600003612fb7575092915050565b815115612fe9578082604051602001612fd1929190613f48565b60405160208183030381529060405292505050919050565b61289f84613218565b60006001600160e01b031982166380ac58cd60e01b148061302357506001600160e01b03198216635b5e139f60e01b145b8061081a57506301ffc9a760e01b6001600160e01b031983161461081a565b6000613097826040518060400160405280602081526020017f5361666545524332303a206c6f772d6c6576656c2063616c6c206661696c6564815250856001600160a01b031661328c9092919063ffffffff16565b90508051600014806130b85750808060200190518101906130b89190613f77565b6109ee5760405162461bcd60e51b815260206004820152602a60248201527f5361666545524332303a204552433230206f7065726174696f6e20646964206e6044820152691bdd081cdd58d8d9595960b21b606482015260840161094d565b60006001600160a01b0384163b1561320d57604051630a85bd0160e11b81526001600160a01b0385169063150b7a029061315b903390899088908890600401613f94565b6020604051808303816000875af1925050508015613196575060408051601f3d908101601f1916820190925261319391810190613fd1565b60015b6131f3573d8080156131c4576040519150601f19603f3d011682016040523d82523d6000602084013e6131c9565b606091505b5080516000036131eb5760405162461bcd60e51b815260040161094d90613ef6565b805181602001fd5b6001600160e01b031916630a85bd0160e11b14905061289f565b506001949350505050565b60606132238261276a565b600061323a60408051602081019091526000815290565b9050600081511161325a5760405180602001604052806000815250613285565b806132648461329b565b604051602001613275929190613f48565b6040516020818303038152906040525b9392505050565b606061289f848460008561332e565b606060006132a883613409565b600101905060008167ffffffffffffffff8111156132c8576132c86136f6565b6040519080825280601f01601f1916602001820160405280156132f2576020820181803683370190505b5090508181016020015b600019016f181899199a1a9b1b9c1cb0b131b232b360811b600a86061a8153600a85049450846132fc57509392505050565b60608247101561338f5760405162461bcd60e51b815260206004820152602660248201527f416464726573733a20696e73756666696369656e742062616c616e636520666f6044820152651c8818d85b1b60d21b606482015260840161094d565b600080866001600160a01b031685876040516133ab9190613fee565b60006040518083038185875af1925050503d80600081146133e8576040519150601f19603f3d011682016040523d82523d6000602084013e6133ed565b606091505b50915091506133fe878383876134e1565b979650505050505050565b60008072184f03e93ff9f4daa797ed6e38ed64bf6a1f0160401b83106134485772184f03e93ff9f4daa797ed6e38ed64bf6a1f0160401b830492506040015b6d04ee2d6d415b85acef81000000008310613474576d04ee2d6d415b85acef8100000000830492506020015b662386f26fc10000831061349257662386f26fc10000830492506010015b6305f5e10083106134aa576305f5e100830492506008015b61271083106134be57612710830492506004015b606483106134d0576064830492506002015b600a831061081a5760010192915050565b60608315613550578251600003613549576001600160a01b0385163b6135495760405162461bcd60e51b815260206004820152601d60248201527f416464726573733a2063616c6c20746f206e6f6e2d636f6e7472616374000000604482015260640161094d565b508161289f565b61289f83838151156135655781518083602001fd5b8060405162461bcd60e51b815260040161094d9190613602565b6001600160e01b03198116811461117757600080fd5b6000602082840312156135a757600080fd5b81356132858161357f565b60005b838110156135cd5781810151838201526020016135b5565b50506000910152565b600081518084526135ee8160208601602086016135b2565b601f01601f19169290920160200192915050565b60208152600061328560208301846135d6565b60006020828403121561362757600080fd5b5035919050565b80356001600160a01b038116811461364557600080fd5b919050565b6000806040838503121561365d57600080fd5b6136668361362e565b946020939093013593505050565b60e08152600061368760e083018a6135d6565b602083019890985250604081019590955260608501939093529015156080840152151560a083015260c090910152919050565b6000806000606084860312156136cf57600080fd5b6136d88461362e565b92506136e66020850161362e565b9150604084013590509250925092565b634e487b7160e01b600052604160045260246000fd5b600067ffffffffffffffff80841115613727576137276136f6565b604051601f8501601f19908116603f0116810190828211818310171561374f5761374f6136f6565b8160405280935085815286868601111561376857600080fd5b858560208301376000602087830101525050509392505050565b600082601f83011261379357600080fd5b6132858383356020850161370c565b6000806000606084860312156137b757600080fd5b833567ffffffffffffffff8111156137ce57600080fd5b6137da86828701613782565b9660208601359650604090950135949350505050565b60006020828403121561380257600080fd5b6132858261362e565b6000806040838503121561381e57600080fd5b8235915061382e6020840161362e565b90509250929050565b86815260018060a01b038616602082015284604082015260c06060820152600061386460c08301866135d6565b60808301949094525090151560a090910152949350505050565b6000806040838503121561389157600080fd5b82359150602083013567ffffffffffffffff8111156138af57600080fd5b6138bb85828601613782565b9150509250929050565b6000806000606084860312156138da57600080fd5b833592506136e66020850161362e565b6000806000606084860312156138ff57600080fd5b83359250602084013567ffffffffffffffff8082111561391e57600080fd5b61392a87838801613782565b9350604086013591508082111561394057600080fd5b5061394d86828701613782565b9150509250925092565b801515811461117757600080fd5b6000806040838503121561397857600080fd5b6139818361362e565b9150602083013561399181613957565b809150509250929050565b6020808252825182820181905260009190848201906040850190845b818110156139d4578351835292840192918401916001016139b8565b50909695505050505050565b600080600080608085870312156139f657600080fd5b84359350602085013567ffffffffffffffff80821115613a1557600080fd5b613a2188838901613782565b9450604087013593506060870135915080821115613a3e57600080fd5b50613a4b87828801613782565b91505092959194509250565b60008060008060808587031215613a6d57600080fd5b613a768561362e565b9350613a846020860161362e565b925060408501359150606085013567ffffffffffffffff811115613aa757600080fd5b8501601f81018713613ab857600080fd5b613a4b8782356020840161370c565b60a081526000613ada60a08301886135d6565b8660208401528281036040840152613af281876135d6565b94151560608401525050608001529392505050565b60a081526000613b1a60a08301886135d6565b60208301969096525060408101939093526001600160a01b039190911660608301521515608090910152919050565b60a081526000613b5c60a08301886135d6565b6001600160a01b0387166020840152604083018690528281036060840152613b8481866135d6565b91505082151560808301529695505050505050565b60e081526000613bac60e083018a6135d6565b602083019890985250604081019590955260608501939093526080840191909152151560a0830152151560c090910152919050565b60008060408385031215613bf457600080fd5b613bfd8361362e565b915061382e6020840161362e565b600181811c90821680613c1f57607f821691505b602082108103613c3f57634e487b7160e01b600052602260045260246000fd5b50919050565b6020808252602d908201527f4552433732313a2063616c6c6572206973206e6f7420746f6b656e206f776e6560408201526c1c881bdc88185c1c1c9bdd9959609a1b606082015260800190565b601f8211156109ee57600081815260208120601f850160051c81016020861015613cb95750805b601f850160051c820191505b81811015613cd857828155600101613cc5565b505050505050565b815167ffffffffffffffff811115613cfa57613cfa6136f6565b613d0e81613d088454613c0b565b84613c92565b602080601f831160018114613d435760008415613d2b5750858301515b600019600386901b1c1916600185901b178555613cd8565b600085815260208120601f198616915b82811015613d7257888601518255948401946001909101908401613d53565b5085821015613d905787850151600019600388901b60f8161c191681555b5050505050600190811b01905550565b634e487b7160e01b600052601160045260246000fd5b600060018201613dc857613dc8613da0565b5060010190565b606081526000613de260608301866135d6565b60208301949094525060400152919050565b600060208284031215613e0657600080fd5b5051919050565b60208082526017908201527f43616d706169676e20646f6573206e6f74206578697374000000000000000000604082015260600190565b600082613e6157634e487b7160e01b600052601260045260246000fd5b500490565b634e487b7160e01b600052603260045260246000fd5b8082018082111561081a5761081a613da0565b604081526000613ea260408301856135d6565b90508260208301529392505050565b60208082526025908201527f4552433732313a207472616e736665722066726f6d20696e636f72726563742060408201526437bbb732b960d91b606082015260800190565b60208082526032908201527f4552433732313a207472616e7366657220746f206e6f6e20455243373231526560408201527131b2b4bb32b91034b6b83632b6b2b73a32b960711b606082015260800190565b60008351613f5a8184602088016135b2565b835190830190613f6e8183602088016135b2565b01949350505050565b600060208284031215613f8957600080fd5b815161328581613957565b6001600160a01b0385811682528416602082015260408101839052608060608201819052600090613fc7908301846135d6565b9695505050505050565b600060208284031215613fe357600080fd5b81516132858161357f565b600082516140008184602087016135b2565b919091019291505056fea2646970667358221220652269e1d0c64cf29e28e3a08a7bdd29449017ed430aa9ce8633585869f2f6ab64736f6c63430008110033",
  "linkReferences": {},
  "deployedLinkReferences": {}
}